:100000000C9434000C9449000C9449000C94490061
:100010000C9449000C9449000C9449000C9449003C
:100020000C9449000C9449000C9449000C9449002C
:100030000C9449000C9449000C9449000C9449001C
:100040000C9449000C9449000C9449000C9449000C
:100050000C9449000C9449000C9449000C944900FC
:100060000C9449000C94490011241FBECFEFD8E036
:10007000DEBFCDBF11E0A0E0B1E0E0EEF0E002C0F5
:1000800005900D92A631B107D9F70E944B000C9450
:100090006E000C9400001092C50087E68093C400A7
:1000A0001092C00088E08093C10086E08093C20077
:1000B000E0E0F1E0819181110AC02FEF83ED90E340
:1000C000215080409040E1F700C00000F1CF9091B6
:1000D000C00095FFFCCF8093C600ECCFF894FFCF13
:1000E0004845582073696D756C6174696F6E207234
:0600F000656164790A005D
:00000001FF
