:100000000C9434000C9449000C9449000C94490061
:100010000C9449000C9449000C9449000C9449003C
:100020000C9449000C9449000C9449000C9449002C
:100030000C9449000C9449000C9449000C9449001C
:100040000C9449000C9449000C9449000C9449000C
:100050000C9449000C9449000C9449000C944900FC
:100060000C9449000C94490011241FBECFEFD8E036
:10007000DEBFCDBF11E0A0E0B1E0E2E8F1E002C0F8
:1000800005900D92A631B107D9F70E9477000C9424
:10009000BF000C940000CF93DF9300D0CDB7DEB744
:1000A0009A83898318C0000080EC90E0FC01808175
:1000B000882F90E080729927892BB1F389819A81EA
:1000C0009C012F5F3F4F3A832983FC01208186ECFE
:1000D00090E0FC01208389819A81FC018081882342
:1000E00011F700000F900F90DF91CF910895CF93FB
:1000F000DF9300D000D000D0CDB7DEB785EC90E024
:10010000FC01108284EC90E027E6FC01208380EC67
:1001100090E0FC01108281EC90E028E0FC0120835B
:1001200082EC90E026E0FC01208389E290E09E834F
:100130008D838D819E8101969E838D838D819E818D
:1001400001969E838D8380E091E00E944B001A828D
:1001500019820FC080EA9FE09C838B838B819C81F6
:100160000197F1F79C838B8389819A8101969A8309
:10017000898389819A81883E934060F3E4CFF89423
:02018000FFCFAF
:100182004156522073696D756C6174696F6E20728D
:06019200656164790A00BA
:00000001FF
